{
  "_format": "hh-sol-artifact-1",
  "contractName": "NFTicket",
  "sourceName": "contracts/NFTicket.sol",
  "abi": [
    {
      "inputs": [
        {
          "internalType": "string",
          "name": "name",
          "type": "string"
        },
        {
          "internalType": "string",
          "name": "symbol",
          "type": "string"
        },
        {
          "internalType": "address",
          "name": "owner",
          "type": "address"
        }
      ],
      "stateMutability": "nonpayable",
      "type": "constructor"
    },
    {
      "inputs": [
        {
          "internalType": "address",
          "name": "sender",
          "type": "address"
        },
        {
          "internalType": "uint256",
          "name": "tokenId",
          "type": "uint256"
        },
        {
          "internalType": "address",
          "name": "owner",
          "type": "address"
        }
      ],
      "name": "ERC721IncorrectOwner",
      "type": "error"
    },
    {
      "inputs": [
        {
          "internalType": "address",
          "name": "operator",
          "type": "address"
        },
        {
          "internalType": "uint256",
          "name": "tokenId",
          "type": "uint256"
        }
      ],
      "name": "ERC721InsufficientApproval",
      "type": "error"
    },
    {
      "inputs": [
        {
          "internalType": "address",
          "name": "approver",
          "type": "address"
        }
      ],
      "name": "ERC721InvalidApprover",
      "type": "error"
    },
    {
      "inputs": [
        {
          "internalType": "address",
          "name": "operator",
          "type": "address"
        }
      ],
      "name": "ERC721InvalidOperator",
      "type": "error"
    },
    {
      "inputs": [
        {
          "internalType": "address",
          "name": "owner",
          "type": "address"
        }
      ],
      "name": "ERC721InvalidOwner",
      "type": "error"
    },
    {
      "inputs": [
        {
          "internalType": "address",
          "name": "receiver",
          "type": "address"
        }
      ],
      "name": "ERC721InvalidReceiver",
      "type": "error"
    },
    {
      "inputs": [
        {
          "internalType": "address",
          "name": "sender",
          "type": "address"
        }
      ],
      "name": "ERC721InvalidSender",
      "type": "error"
    },
    {
      "inputs": [
        {
          "internalType": "uint256",
          "name": "tokenId",
          "type": "uint256"
        }
      ],
      "name": "ERC721NonexistentToken",
      "type": "error"
    },
    {
      "inputs": [
        {
          "internalType": "address",
          "name": "owner",
          "type": "address"
        }
      ],
      "name": "OwnableInvalidOwner",
      "type": "error"
    },
    {
      "inputs": [
        {
          "internalType": "address",
          "name": "account",
          "type": "address"
        }
      ],
      "name": "OwnableUnauthorizedAccount",
      "type": "error"
    },
    {
      "anonymous": false,
      "inputs": [
        {
          "indexed": true,
          "internalType": "address",
          "name": "owner",
          "type": "address"
        },
        {
          "indexed": true,
          "internalType": "address",
          "name": "approved",
          "type": "address"
        },
        {
          "indexed": true,
          "internalType": "uint256",
          "name": "tokenId",
          "type": "uint256"
        }
      ],
      "name": "Approval",
      "type": "event"
    },
    {
      "anonymous": false,
      "inputs": [
        {
          "indexed": true,
          "internalType": "address",
          "name": "owner",
          "type": "address"
        },
        {
          "indexed": true,
          "internalType": "address",
          "name": "operator",
          "type": "address"
        },
        {
          "indexed": false,
          "internalType": "bool",
          "name": "approved",
          "type": "bool"
        }
      ],
      "name": "ApprovalForAll",
      "type": "event"
    },
    {
      "anonymous": false,
      "inputs": [
        {
          "indexed": false,
          "internalType": "uint256",
          "name": "_fromTokenId",
          "type": "uint256"
        },
        {
          "indexed": false,
          "internalType": "uint256",
          "name": "_toTokenId",
          "type": "uint256"
        }
      ],
      "name": "BatchMetadataUpdate",
      "type": "event"
    },
    {
      "anonymous": false,
      "inputs": [
        {
          "indexed": false,
          "internalType": "uint256",
          "name": "_tokenId",
          "type": "uint256"
        }
      ],
      "name": "MetadataUpdate",
      "type": "event"
    },
    {
      "anonymous": false,
      "inputs": [
        {
          "indexed": true,
          "internalType": "address",
          "name": "previousOwner",
          "type": "address"
        },
        {
          "indexed": true,
          "internalType": "address",
          "name": "newOwner",
          "type": "address"
        }
      ],
      "name": "OwnershipTransferred",
      "type": "event"
    },
    {
      "anonymous": false,
      "inputs": [
        {
          "indexed": true,
          "internalType": "address",
          "name": "from",
          "type": "address"
        },
        {
          "indexed": true,
          "internalType": "address",
          "name": "to",
          "type": "address"
        },
        {
          "indexed": true,
          "internalType": "uint256",
          "name": "tokenId",
          "type": "uint256"
        }
      ],
      "name": "Transfer",
      "type": "event"
    },
    {
      "inputs": [
        {
          "internalType": "address",
          "name": "to",
          "type": "address"
        },
        {
          "internalType": "uint256",
          "name": "tokenId",
          "type": "uint256"
        }
      ],
      "name": "approve",
      "outputs": [],
      "stateMutability": "nonpayable",
      "type": "function"
    },
    {
      "inputs": [
        {
          "internalType": "address",
          "name": "owner",
          "type": "address"
        }
      ],
      "name": "balanceOf",
      "outputs": [
        {
          "internalType": "uint256",
          "name": "",
          "type": "uint256"
        }
      ],
      "stateMutability": "view",
      "type": "function"
    },
    {
      "inputs": [
        {
          "internalType": "uint256",
          "name": "_id",
          "type": "uint256"
        },
        {
          "internalType": "uint256",
          "name": "_seat",
          "type": "uint256"
        },
        {
          "internalType": "string",
          "name": "metadataUri",
          "type": "string"
        }
      ],
      "name": "buyTicket",
      "outputs": [
        {
          "internalType": "uint256",
          "name": "",
          "type": "uint256"
        }
      ],
      "stateMutability": "payable",
      "type": "function"
    },
    {
      "inputs": [
        {
          "internalType": "string",
          "name": "_name",
          "type": "string"
        },
        {
          "internalType": "uint256",
          "name": "_price",
          "type": "uint256"
        },
        {
          "internalType": "string",
          "name": "_date",
          "type": "string"
        },
        {
          "internalType": "string",
          "name": "_time",
          "type": "string"
        },
        {
          "internalType": "string",
          "name": "_location",
          "type": "string"
        },
        {
          "internalType": "uint256",
          "name": "_maxTickets",
          "type": "uint256"
        }
      ],
      "name": "createEvent",
      "outputs": [],
      "stateMutability": "nonpayable",
      "type": "function"
    },
    {
      "inputs": [
        {
          "internalType": "uint256",
          "name": "tokenId",
          "type": "uint256"
        }
      ],
      "name": "getApproved",
      "outputs": [
        {
          "internalType": "address",
          "name": "",
          "type": "address"
        }
      ],
      "stateMutability": "view",
      "type": "function"
    },
    {
      "inputs": [
        {
          "internalType": "uint256",
          "name": "_id",
          "type": "uint256"
        }
      ],
      "name": "getSeatsTaken",
      "outputs": [
        {
          "internalType": "uint256[]",
          "name": "",
          "type": "uint256[]"
        }
      ],
      "stateMutability": "view",
      "type": "function"
    },
    {
      "inputs": [
        {
          "internalType": "uint256",
          "name": "",
          "type": "uint256"
        },
        {
          "internalType": "address",
          "name": "",
          "type": "address"
        }
      ],
      "name": "hasPurchased",
      "outputs": [
        {
          "internalType": "bool",
          "name": "",
          "type": "bool"
        }
      ],
      "stateMutability": "view",
      "type": "function"
    },
    {
      "inputs": [
        {
          "internalType": "address",
          "name": "owner",
          "type": "address"
        },
        {
          "internalType": "address",
          "name": "operator",
          "type": "address"
        }
      ],
      "name": "isApprovedForAll",
      "outputs": [
        {
          "internalType": "bool",
          "name": "",
          "type": "bool"
        }
      ],
      "stateMutability": "view",
      "type": "function"
    },
    {
      "inputs": [],
      "name": "name",
      "outputs": [
        {
          "internalType": "string",
          "name": "",
          "type": "string"
        }
      ],
      "stateMutability": "view",
      "type": "function"
    },
    {
      "inputs": [],
      "name": "owner",
      "outputs": [
        {
          "internalType": "address",
          "name": "",
          "type": "address"
        }
      ],
      "stateMutability": "view",
      "type": "function"
    },
    {
      "inputs": [
        {
          "internalType": "uint256",
          "name": "tokenId",
          "type": "uint256"
        }
      ],
      "name": "ownerOf",
      "outputs": [
        {
          "internalType": "address",
          "name": "",
          "type": "address"
        }
      ],
      "stateMutability": "view",
      "type": "function"
    },
    {
      "inputs": [],
      "name": "renounceOwnership",
      "outputs": [],
      "stateMutability": "nonpayable",
      "type": "function"
    },
    {
      "inputs": [
        {
          "internalType": "address",
          "name": "from",
          "type": "address"
        },
        {
          "internalType": "address",
          "name": "to",
          "type": "address"
        },
        {
          "internalType": "uint256",
          "name": "tokenId",
          "type": "uint256"
        }
      ],
      "name": "safeTransferFrom",
      "outputs": [],
      "stateMutability": "nonpayable",
      "type": "function"
    },
    {
      "inputs": [
        {
          "internalType": "address",
          "name": "from",
          "type": "address"
        },
        {
          "internalType": "address",
          "name": "to",
          "type": "address"
        },
        {
          "internalType": "uint256",
          "name": "tokenId",
          "type": "uint256"
        },
        {
          "internalType": "bytes",
          "name": "data",
          "type": "bytes"
        }
      ],
      "name": "safeTransferFrom",
      "outputs": [],
      "stateMutability": "nonpayable",
      "type": "function"
    },
    {
      "inputs": [
        {
          "internalType": "uint256",
          "name": "",
          "type": "uint256"
        },
        {
          "internalType": "uint256",
          "name": "",
          "type": "uint256"
        }
      ],
      "name": "seatTaken",
      "outputs": [
        {
          "internalType": "address",
          "name": "",
          "type": "address"
        }
      ],
      "stateMutability": "view",
      "type": "function"
    },
    {
      "inputs": [
        {
          "internalType": "address",
          "name": "operator",
          "type": "address"
        },
        {
          "internalType": "bool",
          "name": "approved",
          "type": "bool"
        }
      ],
      "name": "setApprovalForAll",
      "outputs": [],
      "stateMutability": "nonpayable",
      "type": "function"
    },
    {
      "inputs": [
        {
          "internalType": "bytes4",
          "name": "interfaceId",
          "type": "bytes4"
        }
      ],
      "name": "supportsInterface",
      "outputs": [
        {
          "internalType": "bool",
          "name": "",
          "type": "bool"
        }
      ],
      "stateMutability": "view",
      "type": "function"
    },
    {
      "inputs": [],
      "name": "symbol",
      "outputs": [
        {
          "internalType": "string",
          "name": "",
          "type": "string"
        }
      ],
      "stateMutability": "view",
      "type": "function"
    },
    {
      "inputs": [
        {
          "internalType": "uint256",
          "name": "tokenId",
          "type": "uint256"
        }
      ],
      "name": "tokenURI",
      "outputs": [
        {
          "internalType": "string",
          "name": "",
          "type": "string"
        }
      ],
      "stateMutability": "view",
      "type": "function"
    },
    {
      "inputs": [],
      "name": "totalEvents",
      "outputs": [
        {
          "internalType": "uint256",
          "name": "",
          "type": "uint256"
        }
      ],
      "stateMutability": "view",
      "type": "function"
    },
    {
      "inputs": [
        {
          "internalType": "address",
          "name": "from",
          "type": "address"
        },
        {
          "internalType": "address",
          "name": "to",
          "type": "address"
        },
        {
          "internalType": "uint256",
          "name": "tokenId",
          "type": "uint256"
        }
      ],
      "name": "transferFrom",
      "outputs": [],
      "stateMutability": "nonpayable",
      "type": "function"
    },
    {
      "inputs": [
        {
          "internalType": "address",
          "name": "newOwner",
          "type": "address"
        }
      ],
      "name": "transferOwnership",
      "outputs": [],
      "stateMutability": "nonpayable",
      "type": "function"
    },
    {
      "inputs": [],
      "name": "viewAllEvents",
      "outputs": [
        {
          "components": [
            {
              "internalType": "uint256",
              "name": "id",
              "type": "uint256"
            },
            {
              "internalType": "string",
              "name": "_name",
              "type": "string"
            },
            {
              "internalType": "uint256",
              "name": "price",
              "type": "uint256"
            },
            {
              "internalType": "string",
              "name": "_date",
              "type": "string"
            },
            {
              "internalType": "string",
              "name": "_time",
              "type": "string"
            },
            {
              "internalType": "string",
              "name": "_location",
              "type": "string"
            },
            {
              "internalType": "uint256",
              "name": "tickets",
              "type": "uint256"
            },
            {
              "internalType": "uint256",
              "name": "maxTickets",
              "type": "uint256"
            }
          ],
          "internalType": "struct NFTicket.ListedEvent[]",
          "name": "",
          "type": "tuple[]"
        }
      ],
      "stateMutability": "view",
      "type": "function"
    },
    {
      "inputs": [
        {
          "internalType": "uint256",
          "name": "_id",
          "type": "uint256"
        }
      ],
      "name": "viewEvent",
      "outputs": [
        {
          "components": [
            {
              "internalType": "uint256",
              "name": "id",
              "type": "uint256"
            },
            {
              "internalType": "string",
              "name": "_name",
              "type": "string"
            },
            {
              "internalType": "uint256",
              "name": "price",
              "type": "uint256"
            },
            {
              "internalType": "string",
              "name": "_date",
              "type": "string"
            },
            {
              "internalType": "string",
              "name": "_time",
              "type": "string"
            },
            {
              "internalType": "string",
              "name": "_location",
              "type": "string"
            },
            {
              "internalType": "uint256",
              "name": "tickets",
              "type": "uint256"
            },
            {
              "internalType": "uint256",
              "name": "maxTickets",
              "type": "uint256"
            }
          ],
          "internalType": "struct NFTicket.ListedEvent",
          "name": "",
          "type": "tuple"
        }
      ],
      "stateMutability": "view",
      "type": "function"
    },
    {
      "inputs": [],
      "name": "withdrawFunds",
      "outputs": [],
      "stateMutability": "nonpayable",
      "type": "function"
    }
  ],
  "bytecode": "0x60806040523480156200001157600080fd5b50604051620043b9380380620043b98339818101604052810190620000379190620003ae565b80838381600090816200004b919062000693565b5080600190816200005d919062000693565b505050600073ffffffffffffffffffffffffffffffffffffffff168173ffffffffffffffffffffffffffffffffffffffff1603620000d55760006040517f1e4fbdf7000000000000000000000000000000000000000000000000000000008152600401620000cc91906200078b565b60405180910390fd5b620000e681620000f060201b60201c565b50505050620007a8565b6000600760009054906101000a900473ffffffffffffffffffffffffffffffffffffffff16905081600760006101000a81548173ffffffffffffffffffffffffffffffffffffffff021916908373ffffffffffffffffffffffffffffffffffffffff1602179055508173ffffffffffffffffffffffffffffffffffffffff168173ffffffffffffffffffffffffffffffffffffffff167f8be0079c531659141344cd1fd0a4f28419497f9722a3daafe3b4186f6b6457e060405160405180910390a35050565b6000604051905090565b600080fd5b600080fd5b600080fd5b600080fd5b6000601f19601f8301169050919050565b7f4e487b7100000000000000000000000000000000000000000000000000000000600052604160045260246000fd5b6200021f82620001d4565b810181811067ffffffffffffffff82111715620002415762000240620001e5565b5b80604052505050565b600062000256620001b6565b905062000264828262000214565b919050565b600067ffffffffffffffff821115620002875762000286620001e5565b5b6200029282620001d4565b9050602081019050919050565b60005b83811015620002bf578082015181840152602081019050620002a2565b60008484015250505050565b6000620002e2620002dc8462000269565b6200024a565b905082815260208101848484011115620003015762000300620001cf565b5b6200030e8482856200029f565b509392505050565b600082601f8301126200032e576200032d620001ca565b5b815162000340848260208601620002cb565b91505092915050565b600073ffffffffffffffffffffffffffffffffffffffff82169050919050565b6000620003768262000349565b9050919050565b620003888162000369565b81146200039457600080fd5b50565b600081519050620003a8816200037d565b92915050565b600080600060608486031215620003ca57620003c9620001c0565b5b600084015167ffffffffffffffff811115620003eb57620003ea620001c5565b5b620003f98682870162000316565b935050602084015167ffffffffffffffff8111156200041d576200041c620001c5565b5b6200042b8682870162000316565b92505060406200043e8682870162000397565b9150509250925092565b600081519050919050565b7f4e487b7100000000000000000000000000000000000000000000000000000000600052602260045260246000fd5b600060028204905060018216806200049b57607f821691505b602082108103620004b157620004b062000453565b5b50919050565b60008190508160005260206000209050919050565b60006020601f8301049050919050565b600082821b905092915050565b6000600883026200051b7fffffffffffffffffffffffffffffffffffffffffffffffffffffffffffffffff82620004dc565b620005278683620004dc565b95508019841693508086168417925050509392505050565b6000819050919050565b6000819050919050565b6000620005746200056e62000568846200053f565b62000549565b6200053f565b9050919050565b6000819050919050565b620005908362000553565b620005a86200059f826200057b565b848454620004e9565b825550505050565b600090565b620005bf620005b0565b620005cc81848462000585565b505050565b5b81811015620005f457620005e8600082620005b5565b600181019050620005d2565b5050565b601f82111562000643576200060d81620004b7565b6200061884620004cc565b8101602085101562000628578190505b620006406200063785620004cc565b830182620005d1565b50505b505050565b600082821c905092915050565b6000620006686000198460080262000648565b1980831691505092915050565b600062000683838362000655565b9150826002028217905092915050565b6200069e8262000448565b67ffffffffffffffff811115620006ba57620006b9620001e5565b5b620006c6825462000482565b620006d3828285620005f8565b600060209050601f8311600181146200070b5760008415620006f6578287015190505b62000702858262000675565b86555062000772565b601f1984166200071b86620004b7565b60005b8281101562000745578489015182556001820191506020850194506020810190506200071e565b8683101562000765578489015162000761601f89168262000655565b8355505b6001600288020188555050505b505050505050565b620007858162000369565b82525050565b6000602082019050620007a260008301846200077a565b92915050565b613c0180620007b86000396000f3fe6080604052600436106101665760003560e01c8063715018a6116100d1578063b88d4fde1161008a578063dc9da2f811610064578063dc9da2f814610553578063e985e9c514610590578063ea1f1fdd146105cd578063f2fde38b146105f857610166565b8063b88d4fde146104c2578063ba870686146104eb578063c87b56dd1461051657610166565b8063715018a6146103c65780638da5cb5b146103dd57806395d89b411461040857806395db806314610433578063a22cb4651461045c578063af296da11461048557610166565b806323b872dd1161012357806323b872dd146102a657806324600fc3146102cf57806324923f5f146102e657806342842e0e146103235780636352211e1461034c57806370a082311461038957610166565b806301ffc9a71461016b57806306fdde03146101a8578063081812fc146101d3578063095ea7b3146102105780630ef7ec74146102395780631d6916ab14610276575b600080fd5b34801561017757600080fd5b50610192600480360381019061018d9190612907565b610621565b60405161019f919061294f565b60405180910390f35b3480156101b457600080fd5b506101bd610633565b6040516101ca91906129fa565b60405180910390f35b3480156101df57600080fd5b506101fa60048036038101906101f59190612a52565b6106c5565b6040516102079190612ac0565b60405180910390f35b34801561021c57600080fd5b5061023760048036038101906102329190612b07565b6106e1565b005b34801561024557600080fd5b50610260600480360381019061025b9190612a52565b6106f7565b60405161026d9190612c05565b60405180910390f35b610290600480360381019061028b9190612d5c565b610762565b60405161029d9190612dda565b60405180910390f35b3480156102b257600080fd5b506102cd60048036038101906102c89190612df5565b610abe565b005b3480156102db57600080fd5b506102e4610bc0565b005b3480156102f257600080fd5b5061030d60048036038101906103089190612a52565b610c18565b60405161031a9190612f57565b60405180910390f35b34801561032f57600080fd5b5061034a60048036038101906103459190612df5565b610eb6565b005b34801561035857600080fd5b50610373600480360381019061036e9190612a52565b610ed6565b6040516103809190612ac0565b60405180910390f35b34801561039557600080fd5b506103b060048036038101906103ab9190612f79565b610ee8565b6040516103bd9190612dda565b60405180910390f35b3480156103d257600080fd5b506103db610fa2565b005b3480156103e957600080fd5b506103f2610fb6565b6040516103ff9190612ac0565b60405180910390f35b34801561041457600080fd5b5061041d610fe0565b60405161042a91906129fa565b60405180910390f35b34801561043f57600080fd5b5061045a60048036038101906104559190612fa6565b611072565b005b34801561046857600080fd5b50610483600480360381019061047e91906130cf565b61116e565b005b34801561049157600080fd5b506104ac60048036038101906104a7919061310f565b611184565b6040516104b99190612ac0565b60405180910390f35b3480156104ce57600080fd5b506104e960048036038101906104e491906131f0565b6111c6565b005b3480156104f757600080fd5b506105006111e3565b60405161050d9190612dda565b60405180910390f35b34801561052257600080fd5b5061053d60048036038101906105389190612a52565b6111ed565b60405161054a91906129fa565b60405180910390f35b34801561055f57600080fd5b5061057a60048036038101906105759190613273565b6111ff565b604051610587919061294f565b60405180910390f35b34801561059c57600080fd5b506105b760048036038101906105b291906132b3565b61122e565b6040516105c4919061294f565b60405180910390f35b3480156105d957600080fd5b506105e26112c2565b6040516105ef919061347a565b60405180910390f35b34801561060457600080fd5b5061061f600480360381019061061a9190612f79565b6115ed565b005b600061062c82611673565b9050919050565b606060008054610642906134cb565b80601f016020809104026020016040519081016040528092919081815260200182805461066e906134cb565b80156106bb5780601f10610690576101008083540402835291602001916106bb565b820191906000526020600020905b81548152906001019060200180831161069e57829003601f168201915b5050505050905090565b60006106d0826116d4565b506106da8261175c565b9050919050565b6106f382826106ee611799565b6117a1565b5050565b6060600c600083815260200190815260200160002080548060200260200160405190810160405280929190818152602001828054801561075657602002820191906000526020600020905b815481526020019060010190808311610742575b50505050509050919050565b6000808410156107a7576040517f08c379a000000000000000000000000000000000000000000000000000000000815260040161079e90613548565b60405180910390fd5b6008548411156107ec576040517f08c379a00000000000000000000000000000000000000000000000000000000081526004016107e390613548565b60405180910390fd5b600a600085815260200190815260200160002060020154341015610845576040517f08c379a000000000000000000000000000000000000000000000000000000000815260040161083c906135b4565b60405180910390fd5b600073ffffffffffffffffffffffffffffffffffffffff16600b6000868152602001908152602001600020600085815260200190815260200160002060009054906101000a900473ffffffffffffffffffffffffffffffffffffffff1673ffffffffffffffffffffffffffffffffffffffff16146108f8576040517f08c379a00000000000000000000000000000000000000000000000000000000081526004016108ef90613620565b60405180910390fd5b600a6000858152602001908152602001600020600701548310610950576040517f08c379a00000000000000000000000000000000000000000000000000000000081526004016109479061368c565b60405180910390fd5b6001600d600086815260200190815260200160002060003373ffffffffffffffffffffffffffffffffffffffff1673ffffffffffffffffffffffffffffffffffffffff16815260200190815260200160002060006101000a81548160ff02191690831515021790555033600b6000868152602001908152602001600020600085815260200190815260200160002060006101000a81548173ffffffffffffffffffffffffffffffffffffffff021916908373ffffffffffffffffffffffffffffffffffffffff160217905550600c6000858152602001908152602001600020839080600181540180825580915050600190039060005260206000200160009091909190915055600a60008581526020019081526020016000206006016000815480929190610a7d906136db565b919050555060096000815480929190610a9590613704565b9190505550610aa6336009546117b3565b610ab2600954836117d1565b60095490509392505050565b600073ffffffffffffffffffffffffffffffffffffffff168273ffffffffffffffffffffffffffffffffffffffff1603610b305760006040517f64a0ae92000000000000000000000000000000000000000000000000000000008152600401610b279190612ac0565b60405180910390fd5b6000610b448383610b3f611799565b61182d565b90508373ffffffffffffffffffffffffffffffffffffffff168173ffffffffffffffffffffffffffffffffffffffff1614610bba578382826040517f64283d7b000000000000000000000000000000000000000000000000000000008152600401610bb19392919061374c565b60405180910390fd5b50505050565b610bc8611a47565b610bd0610fb6565b73ffffffffffffffffffffffffffffffffffffffff166108fc479081150290604051600060405180830381858888f19350505050158015610c15573d6000803e3d6000fd5b50565b610c20612856565b600a60008381526020019081526020016000206040518061010001604052908160008201548152602001600182018054610c59906134cb565b80601f0160208091040260200160405190810160405280929190818152602001828054610c85906134cb565b8015610cd25780601f10610ca757610100808354040283529160200191610cd2565b820191906000526020600020905b815481529060010190602001808311610cb557829003601f168201915b5050505050815260200160028201548152602001600382018054610cf5906134cb565b80601f0160208091040260200160405190810160405280929190818152602001828054610d21906134cb565b8015610d6e5780601f10610d4357610100808354040283529160200191610d6e565b820191906000526020600020905b815481529060010190602001808311610d5157829003601f168201915b50505050508152602001600482018054610d87906134cb565b80601f0160208091040260200160405190810160405280929190818152602001828054610db3906134cb565b8015610e005780601f10610dd557610100808354040283529160200191610e00565b820191906000526020600020905b815481529060010190602001808311610de357829003601f168201915b50505050508152602001600582018054610e19906134cb565b80601f0160208091040260200160405190810160405280929190818152602001828054610e45906134cb565b8015610e925780601f10610e6757610100808354040283529160200191610e92565b820191906000526020600020905b815481529060010190602001808311610e7557829003601f168201915b50505050508152602001600682015481526020016007820154815250509050919050565b610ed1838383604051806020016040528060008152506111c6565b505050565b6000610ee1826116d4565b9050919050565b60008073ffffffffffffffffffffffffffffffffffffffff168273ffffffffffffffffffffffffffffffffffffffff1603610f5b5760006040517f89c62b64000000000000000000000000000000000000000000000000000000008152600401610f529190612ac0565b60405180910390fd5b600360008373ffffffffffffffffffffffffffffffffffffffff1673ffffffffffffffffffffffffffffffffffffffff168152602001908152602001600020549050919050565b610faa611a47565b610fb46000611ace565b565b6000600760009054906101000a900473ffffffffffffffffffffffffffffffffffffffff16905090565b606060018054610fef906134cb565b80601f016020809104026020016040519081016040528092919081815260200182805461101b906134cb565b80156110685780601f1061103d57610100808354040283529160200191611068565b820191906000526020600020905b81548152906001019060200180831161104b57829003601f168201915b5050505050905090565b61107a611a47565b604051806101000160405280600854815260200187815260200186815260200185815260200184815260200183815260200182815260200182815250600a600060085481526020019081526020016000206000820151816000015560208201518160010190816110ea919061392f565b5060408201518160020155606082015181600301908161110a919061392f565b506080820151816004019081611120919061392f565b5060a0820151816005019081611136919061392f565b5060c0820151816006015560e082015181600701559050506008600081548092919061116190613704565b9190505550505050505050565b611180611179611799565b8383611b94565b5050565b600b6020528160005260406000206020528060005260406000206000915091509054906101000a900473ffffffffffffffffffffffffffffffffffffffff1681565b6111d1848484610abe565b6111dd84848484611d03565b50505050565b6000600854905090565b60606111f882611eba565b9050919050565b600d6020528160005260406000206020528060005260406000206000915091509054906101000a900460ff1681565b6000600560008473ffffffffffffffffffffffffffffffffffffffff1673ffffffffffffffffffffffffffffffffffffffff16815260200190815260200160002060008373ffffffffffffffffffffffffffffffffffffffff1673ffffffffffffffffffffffffffffffffffffffff16815260200190815260200160002060009054906101000a900460ff16905092915050565b6060600060085467ffffffffffffffff8111156112e2576112e1612c31565b5b60405190808252806020026020018201604052801561131b57816020015b611308612856565b8152602001906001900390816113005790505b50905060005b6008548110156115e557600a60008281526020019081526020016000206040518061010001604052908160008201548152602001600182018054611364906134cb565b80601f0160208091040260200160405190810160405280929190818152602001828054611390906134cb565b80156113dd5780601f106113b2576101008083540402835291602001916113dd565b820191906000526020600020905b8154815290600101906020018083116113c057829003601f168201915b5050505050815260200160028201548152602001600382018054611400906134cb565b80601f016020809104026020016040519081016040528092919081815260200182805461142c906134cb565b80156114795780601f1061144e57610100808354040283529160200191611479565b820191906000526020600020905b81548152906001019060200180831161145c57829003601f168201915b50505050508152602001600482018054611492906134cb565b80601f01602080910402602001604051908101604052809291908181526020018280546114be906134cb565b801561150b5780601f106114e05761010080835404028352916020019161150b565b820191906000526020600020905b8154815290600101906020018083116114ee57829003601f168201915b50505050508152602001600582018054611524906134cb565b80601f0160208091040260200160405190810160405280929190818152602001828054611550906134cb565b801561159d5780601f106115725761010080835404028352916020019161159d565b820191906000526020600020905b81548152906001019060200180831161158057829003601f168201915b50505050508152602001600682015481526020016007820154815250508282815181106115cd576115cc613a01565b5b60200260200101819052508080600101915050611321565b508091505090565b6115f5611a47565b600073ffffffffffffffffffffffffffffffffffffffff168173ffffffffffffffffffffffffffffffffffffffff16036116675760006040517f1e4fbdf700000000000000000000000000000000000000000000000000000000815260040161165e9190612ac0565b60405180910390fd5b61167081611ace565b50565b6000634906490660e01b7bffffffffffffffffffffffffffffffffffffffffffffffffffffffff1916827bffffffffffffffffffffffffffffffffffffffffffffffffffffffff191614806116cd57506116cc82611fcd565b5b9050919050565b6000806116e0836120af565b9050600073ffffffffffffffffffffffffffffffffffffffff168173ffffffffffffffffffffffffffffffffffffffff160361175357826040517f7e27328900000000000000000000000000000000000000000000000000000000815260040161174a9190612dda565b60405180910390fd5b80915050919050565b60006004600083815260200190815260200160002060009054906101000a900473ffffffffffffffffffffffffffffffffffffffff169050919050565b600033905090565b6117ae83838360016120ec565b505050565b6117cd8282604051806020016040528060008152506122b1565b5050565b806006600084815260200190815260200160002090816117f1919061392f565b507ff8e1a15aba9398e019f0b49df1a4fde98ee17ae345cb5f6b5e2c27f5033e8ce7826040516118219190612dda565b60405180910390a15050565b600080611839846120af565b9050600073ffffffffffffffffffffffffffffffffffffffff168373ffffffffffffffffffffffffffffffffffffffff161461187b5761187a8184866122cd565b5b600073ffffffffffffffffffffffffffffffffffffffff168173ffffffffffffffffffffffffffffffffffffffff161461190c576118bd6000856000806120ec565b6001600360008373ffffffffffffffffffffffffffffffffffffffff1673ffffffffffffffffffffffffffffffffffffffff168152602001908152602001600020600082825403925050819055505b600073ffffffffffffffffffffffffffffffffffffffff168573ffffffffffffffffffffffffffffffffffffffff161461198f576001600360008773ffffffffffffffffffffffffffffffffffffffff1673ffffffffffffffffffffffffffffffffffffffff168152602001908152602001600020600082825401925050819055505b846002600086815260200190815260200160002060006101000a81548173ffffffffffffffffffffffffffffffffffffffff021916908373ffffffffffffffffffffffffffffffffffffffff160217905550838573ffffffffffffffffffffffffffffffffffffffff168273ffffffffffffffffffffffffffffffffffffffff167fddf252ad1be2c89b69c2b068fc378daa952ba7f163c4a11628f55a4df523b3ef60405160405180910390a4809150509392505050565b611a4f611799565b73ffffffffffffffffffffffffffffffffffffffff16611a6d610fb6565b73ffffffffffffffffffffffffffffffffffffffff1614611acc57611a90611799565b6040517f118cdaa7000000000000000000000000000000000000000000000000000000008152600401611ac39190612ac0565b60405180910390fd5b565b6000600760009054906101000a900473ffffffffffffffffffffffffffffffffffffffff16905081600760006101000a81548173ffffffffffffffffffffffffffffffffffffffff021916908373ffffffffffffffffffffffffffffffffffffffff1602179055508173ffffffffffffffffffffffffffffffffffffffff168173ffffffffffffffffffffffffffffffffffffffff167f8be0079c531659141344cd1fd0a4f28419497f9722a3daafe3b4186f6b6457e060405160405180910390a35050565b600073ffffffffffffffffffffffffffffffffffffffff168273ffffffffffffffffffffffffffffffffffffffff1603611c0557816040517f5b08ba18000000000000000000000000000000000000000000000000000000008152600401611bfc9190612ac0565b60405180910390fd5b80600560008573ffffffffffffffffffffffffffffffffffffffff1673ffffffffffffffffffffffffffffffffffffffff16815260200190815260200160002060008473ffffffffffffffffffffffffffffffffffffffff1673ffffffffffffffffffffffffffffffffffffffff16815260200190815260200160002060006101000a81548160ff0219169083151502179055508173ffffffffffffffffffffffffffffffffffffffff168373ffffffffffffffffffffffffffffffffffffffff167f17307eab39ab6107e8899845ad3d59bd9653f200f220920489ca2b5937696c3183604051611cf6919061294f565b60405180910390a3505050565b60008373ffffffffffffffffffffffffffffffffffffffff163b1115611eb4578273ffffffffffffffffffffffffffffffffffffffff1663150b7a02611d47611799565b8685856040518563ffffffff1660e01b8152600401611d699493929190613a85565b6020604051808303816000875af1925050508015611da557506040513d601f19601f82011682018060405250810190611da29190613ae6565b60015b611e29573d8060008114611dd5576040519150601f19603f3d011682016040523d82523d6000602084013e611dda565b606091505b506000815103611e2157836040517f64a0ae92000000000000000000000000000000000000000000000000000000008152600401611e189190612ac0565b60405180910390fd5b805181602001fd5b63150b7a0260e01b7bffffffffffffffffffffffffffffffffffffffffffffffffffffffff1916817bffffffffffffffffffffffffffffffffffffffffffffffffffffffff191614611eb257836040517f64a0ae92000000000000000000000000000000000000000000000000000000008152600401611ea99190612ac0565b60405180910390fd5b505b50505050565b6060611ec5826116d4565b506000600660008481526020019081526020016000208054611ee6906134cb565b80601f0160208091040260200160405190810160405280929190818152602001828054611f12906134cb565b8015611f5f5780601f10611f3457610100808354040283529160200191611f5f565b820191906000526020600020905b815481529060010190602001808311611f4257829003601f168201915b505050505090506000611f70612391565b90506000815103611f85578192505050611fc8565b600082511115611fba578082604051602001611fa2929190613b4f565b60405160208183030381529060405292505050611fc8565b611fc3846123a8565b925050505b919050565b60007f80ac58cd000000000000000000000000000000000000000000000000000000007bffffffffffffffffffffffffffffffffffffffffffffffffffffffff1916827bffffffffffffffffffffffffffffffffffffffffffffffffffffffff1916148061209857507f5b5e139f000000000000000000000000000000000000000000000000000000007bffffffffffffffffffffffffffffffffffffffffffffffffffffffff1916827bffffffffffffffffffffffffffffffffffffffffffffffffffffffff1916145b806120a857506120a782612411565b5b9050919050565b60006002600083815260200190815260200160002060009054906101000a900473ffffffffffffffffffffffffffffffffffffffff169050919050565b80806121255750600073ffffffffffffffffffffffffffffffffffffffff168273ffffffffffffffffffffffffffffffffffffffff1614155b15612259576000612135846116d4565b9050600073ffffffffffffffffffffffffffffffffffffffff168373ffffffffffffffffffffffffffffffffffffffff16141580156121a057508273ffffffffffffffffffffffffffffffffffffffff168173ffffffffffffffffffffffffffffffffffffffff1614155b80156121b357506121b1818461122e565b155b156121f557826040517fa9fbf51f0000000000000000000000000000000000000000000000000000000081526004016121ec9190612ac0565b60405180910390fd5b811561225757838573ffffffffffffffffffffffffffffffffffffffff168273ffffffffffffffffffffffffffffffffffffffff167f8c5be1e5ebec7d5bd14f71427d1e84f3dd0314c0f7b2291e5b200ac8c7c3b92560405160405180910390a45b505b836004600085815260200190815260200160002060006101000a81548173ffffffffffffffffffffffffffffffffffffffff021916908373ffffffffffffffffffffffffffffffffffffffff16021790555050505050565b6122bb838361247b565b6122c86000848484611d03565b505050565b6122d8838383612574565b61238c57600073ffffffffffffffffffffffffffffffffffffffff168373ffffffffffffffffffffffffffffffffffffffff160361234d57806040517f7e2732890000000000000000000000000000000000000000000000000000000081526004016123449190612dda565b60405180910390fd5b81816040517f177e802f000000000000000000000000000000000000000000000000000000008152600401612383929190613b73565b60405180910390fd5b505050565b606060405180602001604052806000815250905090565b60606123b3826116d4565b5060006123be612391565b905060008151116123de5760405180602001604052806000815250612409565b806123e884612635565b6040516020016123f9929190613b4f565b6040516020818303038152906040525b915050919050565b60007f01ffc9a7000000000000000000000000000000000000000000000000000000007bffffffffffffffffffffffffffffffffffffffffffffffffffffffff1916827bffffffffffffffffffffffffffffffffffffffffffffffffffffffff1916149050919050565b600073ffffffffffffffffffffffffffffffffffffffff168273ffffffffffffffffffffffffffffffffffffffff16036124ed5760006040517f64a0ae920000000000000000000000000000000000000000000000000000000081526004016124e49190612ac0565b60405180910390fd5b60006124fb8383600061182d565b9050600073ffffffffffffffffffffffffffffffffffffffff168173ffffffffffffffffffffffffffffffffffffffff161461256f5760006040517f73c6ac6e0000000000000000000000000000000000000000000000000000000081526004016125669190612ac0565b60405180910390fd5b505050565b60008073ffffffffffffffffffffffffffffffffffffffff168373ffffffffffffffffffffffffffffffffffffffff161415801561262c57508273ffffffffffffffffffffffffffffffffffffffff168473ffffffffffffffffffffffffffffffffffffffff1614806125ed57506125ec848461122e565b5b8061262b57508273ffffffffffffffffffffffffffffffffffffffff166126138361175c565b73ffffffffffffffffffffffffffffffffffffffff16145b5b90509392505050565b60606000600161264484612703565b01905060008167ffffffffffffffff81111561266357612662612c31565b5b6040519080825280601f01601f1916602001820160405280156126955781602001600182028036833780820191505090505b509050600082602001820190505b6001156126f8578080600190039150507f3031323334353637383961626364656600000000000000000000000000000000600a86061a8153600a85816126ec576126eb613b9c565b5b049450600085036126a3575b819350505050919050565b600080600090507a184f03e93ff9f4daa797ed6e38ed64bf6a1f0100000000000000008310612761577a184f03e93ff9f4daa797ed6e38ed64bf6a1f010000000000000000838161275757612756613b9c565b5b0492506040810190505b6d04ee2d6d415b85acef8100000000831061279e576d04ee2d6d415b85acef8100000000838161279457612793613b9c565b5b0492506020810190505b662386f26fc1000083106127cd57662386f26fc1000083816127c3576127c2613b9c565b5b0492506010810190505b6305f5e10083106127f6576305f5e10083816127ec576127eb613b9c565b5b0492506008810190505b612710831061281b57612710838161281157612810613b9c565b5b0492506004810190505b6064831061283e576064838161283457612833613b9c565b5b0492506002810190505b600a831061284d576001810190505b80915050919050565b60405180610100016040528060008152602001606081526020016000815260200160608152602001606081526020016060815260200160008152602001600081525090565b6000604051905090565b600080fd5b600080fd5b60007fffffffff0000000000000000000000000000000000000000000000000000000082169050919050565b6128e4816128af565b81146128ef57600080fd5b50565b600081359050612901816128db565b92915050565b60006020828403121561291d5761291c6128a5565b5b600061292b848285016128f2565b91505092915050565b60008115159050919050565b61294981612934565b82525050565b60006020820190506129646000830184612940565b92915050565b600081519050919050565b600082825260208201905092915050565b60005b838110156129a4578082015181840152602081019050612989565b60008484015250505050565b6000601f19601f8301169050919050565b60006129cc8261296a565b6129d68185612975565b93506129e6818560208601612986565b6129ef816129b0565b840191505092915050565b60006020820190508181036000830152612a1481846129c1565b905092915050565b6000819050919050565b612a2f81612a1c565b8114612a3a57600080fd5b50565b600081359050612a4c81612a26565b92915050565b600060208284031215612a6857612a676128a5565b5b6000612a7684828501612a3d565b91505092915050565b600073ffffffffffffffffffffffffffffffffffffffff82169050919050565b6000612aaa82612a7f565b9050919050565b612aba81612a9f565b82525050565b6000602082019050612ad56000830184612ab1565b92915050565b612ae481612a9f565b8114612aef57600080fd5b50565b600081359050612b0181612adb565b92915050565b60008060408385031215612b1e57612b1d6128a5565b5b6000612b2c85828601612af2565b9250506020612b3d85828601612a3d565b9150509250929050565b600081519050919050565b600082825260208201905092915050565b6000819050602082019050919050565b612b7c81612a1c565b82525050565b6000612b8e8383612b73565b60208301905092915050565b6000602082019050919050565b6000612bb282612b47565b612bbc8185612b52565b9350612bc783612b63565b8060005b83811015612bf8578151612bdf8882612b82565b9750612bea83612b9a565b925050600181019050612bcb565b5085935050505092915050565b60006020820190508181036000830152612c1f8184612ba7565b905092915050565b600080fd5b600080fd5b7f4e487b7100000000000000000000000000000000000000000000000000000000600052604160045260246000fd5b612c69826129b0565b810181811067ffffffffffffffff82111715612c8857612c87612c31565b5b80604052505050565b6000612c9b61289b565b9050612ca78282612c60565b919050565b600067ffffffffffffffff821115612cc757612cc6612c31565b5b612cd0826129b0565b9050602081019050919050565b82818337600083830152505050565b6000612cff612cfa84612cac565b612c91565b905082815260208101848484011115612d1b57612d1a612c2c565b5b612d26848285612cdd565b509392505050565b600082601f830112612d4357612d42612c27565b5b8135612d53848260208601612cec565b91505092915050565b600080600060608486031215612d7557612d746128a5565b5b6000612d8386828701612a3d565b9350506020612d9486828701612a3d565b925050604084013567ffffffffffffffff811115612db557612db46128aa565b5b612dc186828701612d2e565b9150509250925092565b612dd481612a1c565b82525050565b6000602082019050612def6000830184612dcb565b92915050565b600080600060608486031215612e0e57612e0d6128a5565b5b6000612e1c86828701612af2565b9350506020612e2d86828701612af2565b9250506040612e3e86828701612a3d565b9150509250925092565b600082825260208201905092915050565b6000612e648261296a565b612e6e8185612e48565b9350612e7e818560208601612986565b612e87816129b0565b840191505092915050565b600061010083016000830151612eab6000860182612b73565b5060208301518482036020860152612ec38282612e59565b9150506040830151612ed86040860182612b73565b5060608301518482036060860152612ef08282612e59565b91505060808301518482036080860152612f0a8282612e59565b91505060a083015184820360a0860152612f248282612e59565b91505060c0830151612f3960c0860182612b73565b5060e0830151612f4c60e0860182612b73565b508091505092915050565b60006020820190508181036000830152612f718184612e92565b905092915050565b600060208284031215612f8f57612f8e6128a5565b5b6000612f9d84828501612af2565b91505092915050565b60008060008060008060c08789031215612fc357612fc26128a5565b5b600087013567ffffffffffffffff811115612fe157612fe06128aa565b5b612fed89828a01612d2e565b9650506020612ffe89828a01612a3d565b955050604087013567ffffffffffffffff81111561301f5761301e6128aa565b5b61302b89828a01612d2e565b945050606087013567ffffffffffffffff81111561304c5761304b6128aa565b5b61305889828a01612d2e565b935050608087013567ffffffffffffffff811115613079576130786128aa565b5b61308589828a01612d2e565b92505060a061309689828a01612a3d565b9150509295509295509295565b6130ac81612934565b81146130b757600080fd5b50565b6000813590506130c9816130a3565b92915050565b600080604083850312156130e6576130e56128a5565b5b60006130f485828601612af2565b9250506020613105858286016130ba565b9150509250929050565b60008060408385031215613126576131256128a5565b5b600061313485828601612a3d565b925050602061314585828601612a3d565b9150509250929050565b600067ffffffffffffffff82111561316a57613169612c31565b5b613173826129b0565b9050602081019050919050565b600061319361318e8461314f565b612c91565b9050828152602081018484840111156131af576131ae612c2c565b5b6131ba848285612cdd565b509392505050565b600082601f8301126131d7576131d6612c27565b5b81356131e7848260208601613180565b91505092915050565b6000806000806080858703121561320a576132096128a5565b5b600061321887828801612af2565b945050602061322987828801612af2565b935050604061323a87828801612a3d565b925050606085013567ffffffffffffffff81111561325b5761325a6128aa565b5b613267878288016131c2565b91505092959194509250565b6000806040838503121561328a576132896128a5565b5b600061329885828601612a3d565b92505060206132a985828601612af2565b9150509250929050565b600080604083850312156132ca576132c96128a5565b5b60006132d885828601612af2565b92505060206132e985828601612af2565b9150509250929050565b600081519050919050565b600082825260208201905092915050565b6000819050602082019050919050565b6000610100830160008301516133386000860182612b73565b50602083015184820360208601526133508282612e59565b91505060408301516133656040860182612b73565b506060830151848203606086015261337d8282612e59565b915050608083015184820360808601526133978282612e59565b91505060a083015184820360a08601526133b18282612e59565b91505060c08301516133c660c0860182612b73565b5060e08301516133d960e0860182612b73565b508091505092915050565b60006133f0838361331f565b905092915050565b6000602082019050919050565b6000613410826132f3565b61341a81856132fe565b93508360208202850161342c8561330f565b8060005b85811015613468578484038952815161344985826133e4565b9450613454836133f8565b925060208a01995050600181019050613430565b50829750879550505050505092915050565b600060208201905081810360008301526134948184613405565b905092915050565b7f4e487b7100000000000000000000000000000000000000000000000000000000600052602260045260246000fd5b600060028204905060018216806134e357607f821691505b6020821081036134f6576134f561349c565b5b50919050565b7f4576656e7420646f6573206e6f74206578697374000000000000000000000000600082015250565b6000613532601483612975565b915061353d826134fc565b602082019050919050565b6000602082019050818103600083015261356181613525565b9050919050565b7f496e73756666696369656e742066756e64730000000000000000000000000000600082015250565b600061359e601283612975565b91506135a982613568565b602082019050919050565b600060208201905081810360008301526135cd81613591565b9050919050565b7f536561742069732074616b656e00000000000000000000000000000000000000600082015250565b600061360a600d83612975565b9150613615826135d4565b602082019050919050565b60006020820190508181036000830152613639816135fd565b9050919050565b7f5365617420646f6573206e6f7420657869737400000000000000000000000000600082015250565b6000613676601383612975565b915061368182613640565b602082019050919050565b600060208201905081810360008301526136a581613669565b9050919050565b7f4e487b7100000000000000000000000000000000000000000000000000000000600052601160045260246000fd5b60006136e682612a1c565b9150600082036136f9576136f86136ac565b5b600182039050919050565b600061370f82612a1c565b91507fffffffffffffffffffffffffffffffffffffffffffffffffffffffffffffffff8203613741576137406136ac565b5b600182019050919050565b60006060820190506137616000830186612ab1565b61376e6020830185612dcb565b61377b6040830184612ab1565b949350505050565b60008190508160005260206000209050919050565b60006020601f8301049050919050565b600082821b905092915050565b6000600883026137e57fffffffffffffffffffffffffffffffffffffffffffffffffffffffffffffffff826137a8565b6137ef86836137a8565b95508019841693508086168417925050509392505050565b6000819050919050565b600061382c61382761382284612a1c565b613807565b612a1c565b9050919050565b6000819050919050565b61384683613811565b61385a61385282613833565b8484546137b5565b825550505050565b600090565b61386f613862565b61387a81848461383d565b505050565b5b8181101561389e57613893600082613867565b600181019050613880565b5050565b601f8211156138e3576138b481613783565b6138bd84613798565b810160208510156138cc578190505b6138e06138d885613798565b83018261387f565b50505b505050565b600082821c905092915050565b6000613906600019846008026138e8565b1980831691505092915050565b600061391f83836138f5565b9150826002028217905092915050565b6139388261296a565b67ffffffffffffffff81111561395157613950612c31565b5b61395b82546134cb565b6139668282856138a2565b600060209050601f8311600181146139995760008415613987578287015190505b6139918582613913565b8655506139f9565b601f1984166139a786613783565b60005b828110156139cf578489015182556001820191506020850194506020810190506139aa565b868310156139ec57848901516139e8601f8916826138f5565b8355505b6001600288020188555050505b505050505050565b7f4e487b7100000000000000000000000000000000000000000000000000000000600052603260045260246000fd5b600081519050919050565b600082825260208201905092915050565b6000613a5782613a30565b613a618185613a3b565b9350613a71818560208601612986565b613a7a816129b0565b840191505092915050565b6000608082019050613a9a6000830187612ab1565b613aa76020830186612ab1565b613ab46040830185612dcb565b8181036060830152613ac68184613a4c565b905095945050505050565b600081519050613ae0816128db565b92915050565b600060208284031215613afc57613afb6128a5565b5b6000613b0a84828501613ad1565b91505092915050565b600081905092915050565b6000613b298261296a565b613b338185613b13565b9350613b43818560208601612986565b80840191505092915050565b6000613b5b8285613b1e565b9150613b678284613b1e565b91508190509392505050565b6000604082019050613b886000830185612ab1565b613b956020830184612dcb565b9392505050565b7f4e487b7100000000000000000000000000000000000000000000000000000000600052601260045260246000fdfea2646970667358221220855c58b36ef35e8e5ef267a512400f48b2f325022bc2d72bdf72a4ae2a7b5f9064736f6c63430008180033",
  "linkReferences": {},
  "deployedLinkReferences": {}
}